{
  "contractName": "TicTacToe",
  "abi": [
    {
      "constant": true,
      "inputs": [],
      "name": "commissionEnabled",
      "outputs": [
        {
          "name": "",
          "type": "bool"
        }
      ],
      "payable": false,
      "stateMutability": "view",
      "type": "function"
    },
    {
      "constant": true,
      "inputs": [
        {
          "name": "",
          "type": "uint256"
        }
      ],
      "name": "games",
      "outputs": [
        {
          "name": "gameId",
          "type": "uint256"
        },
        {
          "name": "playerX",
          "type": "address"
        },
        {
          "name": "playerY",
          "type": "address"
        },
        {
          "name": "bet",
          "type": "uint256"
        },
        {
          "name": "status",
          "type": "uint8"
        },
        {
          "name": "whoseTurn",
          "type": "address"
        },
        {
          "name": "fee",
          "type": "uint256"
        },
        {
          "name": "winner",
          "type": "address"
        }
      ],
      "payable": false,
      "stateMutability": "view",
      "type": "function"
    },
    {
      "constant": true,
      "inputs": [],
      "name": "owner",
      "outputs": [
        {
          "name": "",
          "type": "address"
        }
      ],
      "payable": false,
      "stateMutability": "view",
      "type": "function"
    },
    {
      "constant": true,
      "inputs": [],
      "name": "balance",
      "outputs": [
        {
          "name": "",
          "type": "uint256"
        }
      ],
      "payable": false,
      "stateMutability": "view",
      "type": "function"
    },
    {
      "constant": true,
      "inputs": [],
      "name": "MAX_FEE",
      "outputs": [
        {
          "name": "",
          "type": "uint256"
        }
      ],
      "payable": false,
      "stateMutability": "view",
      "type": "function"
    },
    {
      "constant": true,
      "inputs": [],
      "name": "fee",
      "outputs": [
        {
          "name": "",
          "type": "uint256"
        }
      ],
      "payable": false,
      "stateMutability": "view",
      "type": "function"
    },
    {
      "constant": false,
      "inputs": [
        {
          "name": "newOwner",
          "type": "address"
        }
      ],
      "name": "transferOwnership",
      "outputs": [],
      "payable": false,
      "stateMutability": "nonpayable",
      "type": "function"
    },
    {
      "anonymous": false,
      "inputs": [
        {
          "indexed": false,
          "name": "gameId",
          "type": "uint256"
        }
      ],
      "name": "GameStarted",
      "type": "event"
    },
    {
      "anonymous": false,
      "inputs": [
        {
          "indexed": false,
          "name": "gameId",
          "type": "uint256"
        }
      ],
      "name": "NewGame",
      "type": "event"
    },
    {
      "anonymous": false,
      "inputs": [
        {
          "indexed": false,
          "name": "gameId",
          "type": "uint256"
        },
        {
          "indexed": false,
          "name": "quitter",
          "type": "address"
        }
      ],
      "name": "RageQuit",
      "type": "event"
    },
    {
      "anonymous": false,
      "inputs": [
        {
          "indexed": false,
          "name": "gameId",
          "type": "uint256"
        },
        {
          "indexed": false,
          "name": "winner",
          "type": "address"
        },
        {
          "indexed": false,
          "name": "winnings",
          "type": "uint256"
        }
      ],
      "name": "GameWon",
      "type": "event"
    },
    {
      "anonymous": false,
      "inputs": [
        {
          "indexed": true,
          "name": "gameId",
          "type": "uint256"
        },
        {
          "indexed": false,
          "name": "board",
          "type": "address[]"
        },
        {
          "indexed": false,
          "name": "whoseTurn",
          "type": "address"
        },
        {
          "indexed": false,
          "name": "winner",
          "type": "address"
        }
      ],
      "name": "GameUpdateEvent",
      "type": "event"
    },
    {
      "anonymous": false,
      "inputs": [
        {
          "indexed": false,
          "name": "gameId",
          "type": "uint256"
        }
      ],
      "name": "GameDraw",
      "type": "event"
    },
    {
      "anonymous": false,
      "inputs": [
        {
          "indexed": true,
          "name": "previousOwner",
          "type": "address"
        },
        {
          "indexed": true,
          "name": "newOwner",
          "type": "address"
        }
      ],
      "name": "OwnershipTransferred",
      "type": "event"
    },
    {
      "constant": false,
      "inputs": [],
      "name": "createGame",
      "outputs": [],
      "payable": true,
      "stateMutability": "payable",
      "type": "function"
    },
    {
      "constant": true,
      "inputs": [],
      "name": "getGameCount",
      "outputs": [
        {
          "name": "",
          "type": "uint256"
        }
      ],
      "payable": false,
      "stateMutability": "view",
      "type": "function"
    },
    {
      "constant": true,
      "inputs": [
        {
          "name": "gameId",
          "type": "uint256"
        }
      ],
      "name": "getGame",
      "outputs": [
        {
          "name": "id",
          "type": "uint256"
        },
        {
          "name": "playerX",
          "type": "address"
        },
        {
          "name": "playerY",
          "type": "address"
        },
        {
          "name": "bet",
          "type": "uint256"
        },
        {
          "name": "status",
          "type": "uint8"
        },
        {
          "name": "fee",
          "type": "uint256"
        },
        {
          "name": "board",
          "type": "address[]"
        }
      ],
      "payable": false,
      "stateMutability": "view",
      "type": "function"
    },
    {
      "constant": true,
      "inputs": [
        {
          "name": "gameId",
          "type": "uint256"
        }
      ],
      "name": "getGameWinner",
      "outputs": [
        {
          "name": "winner",
          "type": "address"
        }
      ],
      "payable": false,
      "stateMutability": "view",
      "type": "function"
    },
    {
      "constant": false,
      "inputs": [
        {
          "name": "gameId",
          "type": "uint256"
        }
      ],
      "name": "joinGame",
      "outputs": [],
      "payable": true,
      "stateMutability": "payable",
      "type": "function"
    },
    {
      "constant": false,
      "inputs": [
        {
          "name": "gameId",
          "type": "uint256"
        }
      ],
      "name": "rageQuit",
      "outputs": [],
      "payable": false,
      "stateMutability": "nonpayable",
      "type": "function"
    },
    {
      "constant": false,
      "inputs": [
        {
          "name": "gameId",
          "type": "uint256"
        },
        {
          "name": "index",
          "type": "uint256"
        }
      ],
      "name": "playerMove",
      "outputs": [],
      "payable": false,
      "stateMutability": "nonpayable",
      "type": "function"
    },
    {
      "constant": false,
      "inputs": [],
      "name": "enableCommissions",
      "outputs": [],
      "payable": false,
      "stateMutability": "nonpayable",
      "type": "function"
    },
    {
      "constant": false,
      "inputs": [],
      "name": "disableCommissions",
      "outputs": [],
      "payable": false,
      "stateMutability": "nonpayable",
      "type": "function"
    },
    {
      "constant": false,
      "inputs": [
        {
          "name": "newPercentage",
          "type": "uint256"
        }
      ],
      "name": "setFee",
      "outputs": [],
      "payable": false,
      "stateMutability": "nonpayable",
      "type": "function"
    },
    {
      "constant": false,
      "inputs": [],
      "name": "withdraw",
      "outputs": [],
      "payable": false,
      "stateMutability": "nonpayable",
      "type": "function"
    }
  ],
  "bytecode": "0x60806040526000600260006101000a81548160ff0219169083151502179055506014600355336000806101000a81548173ffffffffffffffffffffffffffffffffffffffff021916908373ffffffffffffffffffffffffffffffffffffffff160217905550613010806100736000396000f3006080604052600436106100fc576000357c0100000000000000000000000000000000000000000000000000000000900463ffffffff1680630e79197314610101578063117a5b90146101305780633ccfd60b1461026057806354a757c21461027757806365f969f61461028e57806369fe0e2d146102bb5780637255d729146102e85780638da5cb5b146102f2578063a2f77bcc14610349578063b69ef8a81461045b578063bc063e1a14610486578063bd84af18146104b1578063c3275c46146104c8578063ddca3f43146104ff578063e87c0ee61461052a578063efaa55a014610555578063f2fde38b14610575578063fac20ab8146105b8575b600080fd5b34801561010d57600080fd5b50610116610625565b604051808215151515815260200191505060405180910390f35b34801561013c57600080fd5b5061015b60048036038101908080359060200190929190505050610638565b604051808981526020018873ffffffffffffffffffffffffffffffffffffffff1673ffffffffffffffffffffffffffffffffffffffff1681526020018773ffffffffffffffffffffffffffffffffffffffff1673ffffffffffffffffffffffffffffffffffffffff1681526020018681526020018560028111156101db57fe5b60ff1681526020018473ffffffffffffffffffffffffffffffffffffffff1673ffffffffffffffffffffffffffffffffffffffff1681526020018381526020018273ffffffffffffffffffffffffffffffffffffffff1673ffffffffffffffffffffffffffffffffffffffff1681526020019850505050505050505060405180910390f35b34801561026c57600080fd5b5061027561071c565b005b34801561028357600080fd5b5061028c61080a565b005b34801561029a57600080fd5b506102b960048036038101908080359060200190929190505050610882565b005b3480156102c757600080fd5b506102e66004803603810190808035906020019092919050505061109d565b005b6102f0611112565b005b3480156102fe57600080fd5b50610307611416565b604051808273ffffffffffffffffffffffffffffffffffffffff1673ffffffffffffffffffffffffffffffffffffffff16815260200191505060405180910390f35b34801561035557600080fd5b506103746004803603810190808035906020019092919050505061143b565b604051808881526020018773ffffffffffffffffffffffffffffffffffffffff1673ffffffffffffffffffffffffffffffffffffffff1681526020018673ffffffffffffffffffffffffffffffffffffffff1673ffffffffffffffffffffffffffffffffffffffff1681526020018581526020018460028111156103f457fe5b60ff16815260200183815260200180602001828103825283818151815260200191508051906020019060200280838360005b83811015610441578082015181840152602081019050610426565b505050509050019850505050505050505060405180910390f35b34801561046757600080fd5b5061047061162d565b6040518082815260200191505060405180910390f35b34801561049257600080fd5b5061049b611633565b6040518082815260200191505060405180910390f35b3480156104bd57600080fd5b506104c6611638565b005b3480156104d457600080fd5b506104fd60048036038101908080359060200190929190803590602001909291905050506116b0565b005b34801561050b57600080fd5b50610514611f2e565b6040518082815260200191505060405180910390f35b34801561053657600080fd5b5061053f611f34565b6040518082815260200191505060405180910390f35b61057360048036038101908080359060200190929190505050611f41565b005b34801561058157600080fd5b506105b6600480360381019080803573ffffffffffffffffffffffffffffffffffffffff16906020019092919050505061235b565b005b3480156105c457600080fd5b506105e3600480360381019080803590602001909291905050506124b0565b604051808273ffffffffffffffffffffffffffffffffffffffff1673ffffffffffffffffffffffffffffffffffffffff16815260200191505060405180910390f35b600260009054906101000a900460ff1681565b60018181548110151561064757fe5b90600052602060002090600802016000915090508060000154908060010160009054906101000a900473ffffffffffffffffffffffffffffffffffffffff16908060020160009054906101000a900473ffffffffffffffffffffffffffffffffffffffff16908060030154908060040160009054906101000a900460ff16908060040160019054906101000a900473ffffffffffffffffffffffffffffffffffffffff16908060060154908060070160009054906101000a900473ffffffffffffffffffffffffffffffffffffffff16905088565b60008060009054906101000a900473ffffffffffffffffffffffffffffffffffffffff1673ffffffffffffffffffffffffffffffffffffffff163373ffffffffffffffffffffffffffffffffffffffff1614151561077957600080fd5b60006004541415151561078b57600080fd5b6004543073ffffffffffffffffffffffffffffffffffffffff1631101515156107b357600080fd5b600454905060006004819055503373ffffffffffffffffffffffffffffffffffffffff166108fc829081150290604051600060405180830381858888f19350505050158015610806573d6000803e3d6000fd5b5050565b6000809054906101000a900473ffffffffffffffffffffffffffffffffffffffff1673ffffffffffffffffffffffffffffffffffffffff163373ffffffffffffffffffffffffffffffffffffffff1614151561086557600080fd5b6000600260006101000a81548160ff021916908315150217905550565b6000806000836001805490508110151561089b57600080fd5b846108a4612e67565b6001828154811015156108b357fe5b90600052602060002090600802016101206040519081016040529081600082015481526020016001820160009054906101000a900473ffffffffffffffffffffffffffffffffffffffff1673ffffffffffffffffffffffffffffffffffffffff1673ffffffffffffffffffffffffffffffffffffffff1681526020016002820160009054906101000a900473ffffffffffffffffffffffffffffffffffffffff1673ffffffffffffffffffffffffffffffffffffffff1673ffffffffffffffffffffffffffffffffffffffff168152602001600382015481526020016004820160009054906101000a900460ff1660028111156109ac57fe5b60028111156109b757fe5b81526020016004820160019054906101000a900473ffffffffffffffffffffffffffffffffffffffff1673ffffffffffffffffffffffffffffffffffffffff1673ffffffffffffffffffffffffffffffffffffffff16815260200160058201805480602002602001604051908101604052809291908181526020018280548015610a9657602002820191906000526020600020905b8160009054906101000a900473ffffffffffffffffffffffffffffffffffffffff1673ffffffffffffffffffffffffffffffffffffffff1681526020019060010190808311610a4c575b50505050508152602001600682015481526020016007820160009054906101000a900473ffffffffffffffffffffffffffffffffffffffff1673ffffffffffffffffffffffffffffffffffffffff1673ffffffffffffffffffffffffffffffffffffffff16815250509050806020015173ffffffffffffffffffffffffffffffffffffffff163373ffffffffffffffffffffffffffffffffffffffff161480610b6e5750806040015173ffffffffffffffffffffffffffffffffffffffff163373ffffffffffffffffffffffffffffffffffffffff16145b1515610b7957600080fd5b60006002811115610b8657fe5b600188815481101515610b9557fe5b906000526020600020906008020160040160009054906101000a900460ff166002811115610bbf57fe5b1480610c0e575060016002811115610bd357fe5b600188815481101515610be257fe5b906000526020600020906008020160040160009054906101000a900460ff166002811115610c0c57fe5b145b1515610c1957600080fd5b600187815481101515610c2857fe5b9060005260206000209060080201600301549550600187815481101515610c4b57fe5b906000526020600020906008020160010160009054906101000a900473ffffffffffffffffffffffffffffffffffffffff169450600187815481101515610c8e57fe5b906000526020600020906008020160020160009054906101000a900473ffffffffffffffffffffffffffffffffffffffff16935060006002811115610ccf57fe5b600188815481101515610cde57fe5b906000526020600020906008020160040160009054906101000a900460ff166002811115610d0857fe5b1415610d5f576002600188815481101515610d1f57fe5b906000526020600020906008020160040160006101000a81548160ff02191690836002811115610d4b57fe5b0217905550610d5a858761250d565b611094565b3373ffffffffffffffffffffffffffffffffffffffff168573ffffffffffffffffffffffffffffffffffffffff161415610f1557610d9d8785612558565b867f24387b0710c82c2e8b166523cf3461134c83af95b2ec215e778c250c0cdeb796600189815481101515610dce57fe5b906000526020600020906008020160050160018a815481101515610dee57fe5b906000526020600020906008020160040160019054906101000a900473ffffffffffffffffffffffffffffffffffffffff168760405180806020018473ffffffffffffffffffffffffffffffffffffffff1673ffffffffffffffffffffffffffffffffffffffff1681526020018373ffffffffffffffffffffffffffffffffffffffff1673ffffffffffffffffffffffffffffffffffffffff1681526020018281038252858181548152602001915080548015610f0057602002820191906000526020600020905b8160009054906101000a900473ffffffffffffffffffffffffffffffffffffffff1673ffffffffffffffffffffffffffffffffffffffff1681526020019060010190808311610eb6575b505094505050505060405180910390a2611093565b610f1f8786612558565b867f24387b0710c82c2e8b166523cf3461134c83af95b2ec215e778c250c0cdeb796600189815481101515610f5057fe5b906000526020600020906008020160050160018a815481101515610f7057fe5b906000526020600020906008020160040160019054906101000a900473ffffffffffffffffffffffffffffffffffffffff168860405180806020018473ffffffffffffffffffffffffffffffffffffffff1673ffffffffffffffffffffffffffffffffffffffff1681526020018373ffffffffffffffffffffffffffffffffffffffff1673ffffffffffffffffffffffffffffffffffffffff168152602001828103825285818154815260200191508054801561108257602002820191906000526020600020905b8160009054906101000a900473ffffffffffffffffffffffffffffffffffffffff1673ffffffffffffffffffffffffffffffffffffffff1681526020019060010190808311611038575b505094505050505060405180910390a25b5b50505050505050565b6000809054906101000a900473ffffffffffffffffffffffffffffffffffffffff1673ffffffffffffffffffffffffffffffffffffffff163373ffffffffffffffffffffffffffffffffffffffff161415156110f857600080fd5b6014811115151561110857600080fd5b8060038190555050565b606060008060003411151561112657600080fd5b60096040519080825280602002602001820160405280156111565781602001602082028038833980820191505090505b509250600260009054906101000a900460ff16611174576000611178565b6003545b91506001806101206040519081016040528060018054905081526020013373ffffffffffffffffffffffffffffffffffffffff168152602001600073ffffffffffffffffffffffffffffffffffffffff168152602001348152602001600060028111156111e157fe5b81526020013373ffffffffffffffffffffffffffffffffffffffff168152602001868152602001858152602001600073ffffffffffffffffffffffffffffffffffffffff16815250908060018154018082558091505090600182039060005260206000209060080201600090919290919091506000820151816000015560208201518160010160006101000a81548173ffffffffffffffffffffffffffffffffffffffff021916908373ffffffffffffffffffffffffffffffffffffffff16021790555060408201518160020160006101000a81548173ffffffffffffffffffffffffffffffffffffffff021916908373ffffffffffffffffffffffffffffffffffffffff1602179055506060820151816003015560808201518160040160006101000a81548160ff0219169083600281111561131a57fe5b021790555060a08201518160040160016101000a81548173ffffffffffffffffffffffffffffffffffffffff021916908373ffffffffffffffffffffffffffffffffffffffff16021790555060c0820151816005019080519060200190611382929190612f17565b5060e082015181600601556101008201518160070160006101000a81548173ffffffffffffffffffffffffffffffffffffffff021916908373ffffffffffffffffffffffffffffffffffffffff16021790555050500390507fa0b7f6f22bb4f69adc52dd16ffe2a964ab8b577be274247fa9a1547b03ce3e55816040518082815260200191505060405180910390a1505050565b6000809054906101000a900473ffffffffffffffffffffffffffffffffffffffff1681565b60008060008060008060606001805490508810151561145957600080fd5b60018881548110151561146857fe5b90600052602060002090600802016000015460018981548110151561148957fe5b906000526020600020906008020160010160009054906101000a900473ffffffffffffffffffffffffffffffffffffffff1660018a8154811015156114ca57fe5b906000526020600020906008020160020160009054906101000a900473ffffffffffffffffffffffffffffffffffffffff1660018b81548110151561150b57fe5b90600052602060002090600802016003015460018c81548110151561152c57fe5b906000526020600020906008020160040160009054906101000a900460ff1660018d81548110151561155a57fe5b90600052602060002090600802016006015460018e81548110151561157b57fe5b90600052602060002090600802016005018080548060200260200160405190810160405280929190818152602001828054801561160d57602002820191906000526020600020905b8160009054906101000a900473ffffffffffffffffffffffffffffffffffffffff1673ffffffffffffffffffffffffffffffffffffffff16815260200190600101908083116115c3575b505050505090509650965096509650965096509650919395979092949650565b60045481565b601481565b6000809054906101000a900473ffffffffffffffffffffffffffffffffffffffff1673ffffffffffffffffffffffffffffffffffffffff163373ffffffffffffffffffffffffffffffffffffffff1614151561169357600080fd5b6001600260006101000a81548160ff021916908315150217905550565b600082600180549050811015156116c657600080fd5b83600160028111156116d457fe5b6001828154811015156116e357fe5b906000526020600020906008020160040160009054906101000a900460ff16600281111561170d57fe5b14151561171957600080fd5b84611722612e67565b60018281548110151561173157fe5b90600052602060002090600802016101206040519081016040529081600082015481526020016001820160009054906101000a900473ffffffffffffffffffffffffffffffffffffffff1673ffffffffffffffffffffffffffffffffffffffff1673ffffffffffffffffffffffffffffffffffffffff1681526020016002820160009054906101000a900473ffffffffffffffffffffffffffffffffffffffff1673ffffffffffffffffffffffffffffffffffffffff1673ffffffffffffffffffffffffffffffffffffffff168152602001600382015481526020016004820160009054906101000a900460ff16600281111561182a57fe5b600281111561183557fe5b81526020016004820160019054906101000a900473ffffffffffffffffffffffffffffffffffffffff1673ffffffffffffffffffffffffffffffffffffffff1673ffffffffffffffffffffffffffffffffffffffff1681526020016005820180548060200260200160405190810160405280929190818152602001828054801561191457602002820191906000526020600020905b8160009054906101000a900473ffffffffffffffffffffffffffffffffffffffff1673ffffffffffffffffffffffffffffffffffffffff16815260200190600101908083116118ca575b50505050508152602001600682015481526020016007820160009054906101000a900473ffffffffffffffffffffffffffffffffffffffff1673ffffffffffffffffffffffffffffffffffffffff1673ffffffffffffffffffffffffffffffffffffffff16815250509050806020015173ffffffffffffffffffffffffffffffffffffffff163373ffffffffffffffffffffffffffffffffffffffff1614806119ec5750806040015173ffffffffffffffffffffffffffffffffffffffff163373ffffffffffffffffffffffffffffffffffffffff16145b15156119f757600080fd5b8686600981101515611a0857600080fd5b600073ffffffffffffffffffffffffffffffffffffffff16600183815481101515611a2f57fe5b906000526020600020906008020160050182815481101515611a4d57fe5b9060005260206000200160009054906101000a900473ffffffffffffffffffffffffffffffffffffffff1673ffffffffffffffffffffffffffffffffffffffff16141515611a9a57600080fd5b3373ffffffffffffffffffffffffffffffffffffffff16600183815481101515611ac057fe5b906000526020600020906008020160040160019054906101000a900473ffffffffffffffffffffffffffffffffffffffff1673ffffffffffffffffffffffffffffffffffffffff16141515611b1457600080fd5b3360018a815481101515611b2457fe5b906000526020600020906008020160050189815481101515611b4257fe5b9060005260206000200160006101000a81548173ffffffffffffffffffffffffffffffffffffffff021916908373ffffffffffffffffffffffffffffffffffffffff160217905550611b9389612710565b9650600073ffffffffffffffffffffffffffffffffffffffff168773ffffffffffffffffffffffffffffffffffffffff16141515611bda57611bd58988612558565b611db0565b611be389612a3e565b15611bf657611bf189612b6b565b611daf565b600189815481101515611c0557fe5b906000526020600020906008020160010160009054906101000a900473ffffffffffffffffffffffffffffffffffffffff1673ffffffffffffffffffffffffffffffffffffffff163373ffffffffffffffffffffffffffffffffffffffff161415611d0e57600189815481101515611c7957fe5b906000526020600020906008020160020160009054906101000a900473ffffffffffffffffffffffffffffffffffffffff1660018a815481101515611cba57fe5b906000526020600020906008020160040160016101000a81548173ffffffffffffffffffffffffffffffffffffffff021916908373ffffffffffffffffffffffffffffffffffffffff160217905550611dae565b600189815481101515611d1d57fe5b906000526020600020906008020160010160009054906101000a900473ffffffffffffffffffffffffffffffffffffffff1660018a815481101515611d5e57fe5b906000526020600020906008020160040160016101000a81548173ffffffffffffffffffffffffffffffffffffffff021916908373ffffffffffffffffffffffffffffffffffffffff1602179055505b5b5b887f24387b0710c82c2e8b166523cf3461134c83af95b2ec215e778c250c0cdeb79660018b815481101515611de157fe5b906000526020600020906008020160050160018c815481101515611e0157fe5b906000526020600020906008020160040160019054906101000a900473ffffffffffffffffffffffffffffffffffffffff168a60405180806020018473ffffffffffffffffffffffffffffffffffffffff1673ffffffffffffffffffffffffffffffffffffffff1681526020018373ffffffffffffffffffffffffffffffffffffffff1673ffffffffffffffffffffffffffffffffffffffff1681526020018281038252858181548152602001915080548015611f1357602002820191906000526020600020905b8160009054906101000a900473ffffffffffffffffffffffffffffffffffffffff1673ffffffffffffffffffffffffffffffffffffffff1681526020019060010190808311611ec9575b505094505050505060405180910390a2505050505050505050565b60035481565b6000600180549050905090565b80611f4a612e67565b60008060018054905084101515611f6057600080fd5b600184815481101515611f6f57fe5b90600052602060002090600802016101206040519081016040529081600082015481526020016001820160009054906101000a900473ffffffffffffffffffffffffffffffffffffffff1673ffffffffffffffffffffffffffffffffffffffff1673ffffffffffffffffffffffffffffffffffffffff1681526020016002820160009054906101000a900473ffffffffffffffffffffffffffffffffffffffff1673ffffffffffffffffffffffffffffffffffffffff1673ffffffffffffffffffffffffffffffffffffffff168152602001600382015481526020016004820160009054906101000a900460ff16600281111561206857fe5b600281111561207357fe5b81526020016004820160019054906101000a900473ffffffffffffffffffffffffffffffffffffffff1673ffffffffffffffffffffffffffffffffffffffff1673ffffffffffffffffffffffffffffffffffffffff1681526020016005820180548060200260200160405190810160405280929190818152602001828054801561215257602002820191906000526020600020905b8160009054906101000a900473ffffffffffffffffffffffffffffffffffffffff1673ffffffffffffffffffffffffffffffffffffffff1681526020019060010190808311612108575b50505050508152602001600682015481526020016007820160009054906101000a900473ffffffffffffffffffffffffffffffffffffffff1673ffffffffffffffffffffffffffffffffffffffff1673ffffffffffffffffffffffffffffffffffffffff16815250509250600060028111156121ca57fe5b836080015160028111156121da57fe5b1415156121e657600080fd5b600073ffffffffffffffffffffffffffffffffffffffff16836040015173ffffffffffffffffffffffffffffffffffffffff1614151561222557600080fd5b826020015191503373ffffffffffffffffffffffffffffffffffffffff168273ffffffffffffffffffffffffffffffffffffffff161415151561226757600080fd5b8260600151905080341015151561227d57600080fd5b3360018681548110151561228d57fe5b906000526020600020906008020160020160006101000a81548173ffffffffffffffffffffffffffffffffffffffff021916908373ffffffffffffffffffffffffffffffffffffffff160217905550600180868154811015156122ec57fe5b906000526020600020906008020160040160006101000a81548160ff0219169083600281111561231857fe5b02179055507f50ad08f58a27f2851d7e3a1b3a6a46b290f2ce677e99642d30ff639721e77790856040518082815260200191505060405180910390a15050505050565b6000809054906101000a900473ffffffffffffffffffffffffffffffffffffffff1673ffffffffffffffffffffffffffffffffffffffff163373ffffffffffffffffffffffffffffffffffffffff161415156123b657600080fd5b600073ffffffffffffffffffffffffffffffffffffffff168173ffffffffffffffffffffffffffffffffffffffff16141515156123f257600080fd5b8073ffffffffffffffffffffffffffffffffffffffff166000809054906101000a900473ffffffffffffffffffffffffffffffffffffffff1673ffffffffffffffffffffffffffffffffffffffff167f8be0079c531659141344cd1fd0a4f28419497f9722a3daafe3b4186f6b6457e060405160405180910390a3806000806101000a81548173ffffffffffffffffffffffffffffffffffffffff021916908373ffffffffffffffffffffffffffffffffffffffff16021790555050565b6000600180549050821015156124c557600080fd5b6001828154811015156124d457fe5b906000526020600020906008020160070160009054906101000a900473ffffffffffffffffffffffffffffffffffffffff169050919050565b8173ffffffffffffffffffffffffffffffffffffffff166108fc829081150290604051600060405180830381858888f19350505050158015612553573d6000803e3d6000fd5b505050565b600080600260018581548110151561256c57fe5b906000526020600020906008020160040160006101000a81548160ff0219169083600281111561259857fe5b0217905550826001858154811015156125ad57fe5b906000526020600020906008020160070160006101000a81548173ffffffffffffffffffffffffffffffffffffffff021916908373ffffffffffffffffffffffffffffffffffffffff160217905550600260018581548110151561260d57fe5b906000526020600020906008020160030154029150600060018581548110151561263357fe5b906000526020600020906008020160060154111561268d5760018481548110151561265a57fe5b90600052602060002090600802016006015460648381151561267857fe5b04029050808203915080600454016004819055505b612697838361250d565b7f9e59e9b0ec1755ccaf2fd4a7ed4ad5b0a678626e91834aee53ebdf1356bd390a848484604051808481526020018373ffffffffffffffffffffffffffffffffffffffff1673ffffffffffffffffffffffffffffffffffffffff168152602001828152602001935050505060405180910390a150505050565b6000606060018381548110151561272357fe5b90600052602060002090600802016005018054806020026020016040519081016040528092919081815260200182805480156127b457602002820191906000526020600020905b8160009054906101000a900473ffffffffffffffffffffffffffffffffffffffff1673ffffffffffffffffffffffffffffffffffffffff168152602001906001019080831161276a575b505050505090506127ca81600060016002612d11565b9150600073ffffffffffffffffffffffffffffffffffffffff168273ffffffffffffffffffffffffffffffffffffffff1614151561280a57819150612a38565b61281981600360046005612d11565b9150600073ffffffffffffffffffffffffffffffffffffffff168273ffffffffffffffffffffffffffffffffffffffff1614151561285957819150612a38565b61286881600660076008612d11565b9150600073ffffffffffffffffffffffffffffffffffffffff168273ffffffffffffffffffffffffffffffffffffffff161415156128a857819150612a38565b6128b781600060036006612d11565b9150600073ffffffffffffffffffffffffffffffffffffffff168273ffffffffffffffffffffffffffffffffffffffff161415156128f757819150612a38565b61290681600160046007612d11565b9150600073ffffffffffffffffffffffffffffffffffffffff168273ffffffffffffffffffffffffffffffffffffffff1614151561294657819150612a38565b61295581600260056008612d11565b9150600073ffffffffffffffffffffffffffffffffffffffff168273ffffffffffffffffffffffffffffffffffffffff1614151561299557819150612a38565b6129a481600060046008612d11565b9150600073ffffffffffffffffffffffffffffffffffffffff168273ffffffffffffffffffffffffffffffffffffffff161415156129e457819150612a38565b6129f381600260046006612d11565b9150600073ffffffffffffffffffffffffffffffffffffffff168273ffffffffffffffffffffffffffffffffffffffff16141515612a3357819150612a38565b600091505b50919050565b600060606000600184815481101515612a5357fe5b9060005260206000209060080201600501805480602002602001604051908101604052809291908181526020018280548015612ae457602002820191906000526020600020905b8160009054906101000a900473ffffffffffffffffffffffffffffffffffffffff1673ffffffffffffffffffffffffffffffffffffffff1681526020019060010190808311612a9a575b5050505050915060019250600090505b81518160ff161015612b6157828015612b545750600073ffffffffffffffffffffffffffffffffffffffff16828260ff16815181101515612b3157fe5b9060200190602002015173ffffffffffffffffffffffffffffffffffffffff1614155b9250806001019050612af4565b8292505050919050565b6000806002600184815481101515612b7f57fe5b906000526020600020906008020160040160006101000a81548160ff02191690836002811115612bab57fe5b0217905550600183815481101515612bbf57fe5b90600052602060002090600802016003015491506000600184815481101515612be457fe5b9060005260206000209060080201600601541115612c4157600183815481101515612c0b57fe5b906000526020600020906008020160060154606483811515612c2957fe5b04029050808203915080600202600454016004819055505b612c8b600184815481101515612c5357fe5b906000526020600020906008020160010160009054906101000a900473ffffffffffffffffffffffffffffffffffffffff168361250d565b612cd5600184815481101515612c9d57fe5b906000526020600020906008020160020160009054906101000a900473ffffffffffffffffffffffffffffffffffffffff168361250d565b7fbde3492a0339dd7cc8e00379877e059a377bad88cd45be37d94fc781910b95c9836040518082815260200191505060405180910390a1505050565b60008073ffffffffffffffffffffffffffffffffffffffff16858560ff16815181101515612d3b57fe5b9060200190602002015173ffffffffffffffffffffffffffffffffffffffff1614158015612dc85750848360ff16815181101515612d7557fe5b9060200190602002015173ffffffffffffffffffffffffffffffffffffffff16858560ff16815181101515612da657fe5b9060200190602002015173ffffffffffffffffffffffffffffffffffffffff16145b8015612e335750848260ff16815181101515612de057fe5b9060200190602002015173ffffffffffffffffffffffffffffffffffffffff16858560ff16815181101515612e1157fe5b9060200190602002015173ffffffffffffffffffffffffffffffffffffffff16145b15612e5a57848460ff16815181101515612e4957fe5b906020019060200201519050612e5f565b600090505b949350505050565b6101206040519081016040528060008152602001600073ffffffffffffffffffffffffffffffffffffffff168152602001600073ffffffffffffffffffffffffffffffffffffffff1681526020016000815260200160006002811115612ec957fe5b8152602001600073ffffffffffffffffffffffffffffffffffffffff1681526020016060815260200160008152602001600073ffffffffffffffffffffffffffffffffffffffff1681525090565b828054828255906000526020600020908101928215612f90579160200282015b82811115612f8f5782518260006101000a81548173ffffffffffffffffffffffffffffffffffffffff021916908373ffffffffffffffffffffffffffffffffffffffff16021790555091602001919060010190612f37565b5b509050612f9d9190612fa1565b5090565b612fe191905b80821115612fdd57600081816101000a81549073ffffffffffffffffffffffffffffffffffffffff021916905550600101612fa7565b5090565b905600a165627a7a72305820736bbb4877399e5aa7edb7dc624b393986cc2e5865cdf3d07a2732cdbe15f6740029",
  "source": "pragma solidity ^0.4.21;\n\nimport \"openzeppelin-solidity/contracts/math/SafeMath.sol\";\nimport \"openzeppelin-solidity/contracts/ownership/Ownable.sol\";\n\ncontract TicTacToe is Ownable {\n\n    using SafeMath for uint;\n\n    enum Status {BET, ONGOING, DONE}\n\n    struct Game {\n        uint gameId;\n\n        // Player X is always the creator of the game.\n        address playerX;\n\n        address playerY;\n\n        // Bet. Creator determines bet that the opponent must match in order to start the game.\n        uint bet;\n\n        Status status;\n\n        // Current player. TODO: change this to bool to save space.\n        address whoseTurn;\n\n        address[] board;\n\n        // Fee in percentage of total.\n        uint fee;\n\n        address winner;\n    }\n\n    event GameStarted(uint gameId);\n\n    event NewGame(uint gameId);\n\n    event RageQuit(uint gameId, address quitter);\n\n    event GameWon(uint gameId, address winner, uint winnings);\n\n    event GameUpdateEvent(uint indexed gameId, address[] board, address whoseTurn, address winner);\n    \n    event GameDraw(uint gameId);\n\n    Game[] public games;\n\n    // Whether to charge a fee.\n    bool public commissionEnabled = false;\n\n    // Fee in percentage of total.\n    uint public fee = 20;\n\n    // Balance available to the owner for withdrawal.\n    uint public balance;\n\n    uint public constant MAX_FEE = 20;\n\n    // When creating a game, the first player, the bet, and the status of the game are set.\n    // Status is set to BET for the betting phase.\n    function createGame() public payable {\n        require(msg.value > 0);\n        address[] memory _board = new address[](9);\n        uint _fee = commissionEnabled ? fee : 0;\n        uint gameId = games.push(Game(games.length, msg.sender, address(0), msg.value, Status.BET, msg.sender, _board, _fee, address(0))) - 1;\n        emit NewGame(gameId);\n    }\n\n    function getGameCount() public view returns(uint) {\n        return games.length;\n    }\n\n    // Returns a game. 'view' makes sure the function remains pure.\n    function getGame(uint gameId) public view returns(uint id, address playerX, address playerY, uint bet, Status status, uint fee, address[] board) {\n        require(gameId < games.length);\n        return (games[gameId].gameId, games[gameId].playerX, games[gameId].playerY, games[gameId].bet, games[gameId].status, games[gameId].fee, games[gameId].board);\n    }\n\n    function getGameWinner(uint gameId) public view returns(address winner) {\n        require(gameId < games.length);\n        return games[gameId].winner;\n    }\n\n    // Join a game. Status is then set to ONGOING and an event is fired to warn the other player.\n    function joinGame(uint gameId) public payable mayJoinGame(gameId) {\n        games[gameId].playerY = msg.sender;\n        games[gameId].status = Status.ONGOING;\n        emit GameStarted(gameId);\n    }\n\n    // Quit game. If the game was still in the BETTING phase (i.e. no opponent yet), \n    // the creator of the game is refunded. Else the pot goes to the opponent.\n    function rageQuit(uint gameId) public gameExists(gameId) isParticipating(gameId) {\n        require(games[gameId].status == Status.BET || games[gameId].status == Status.ONGOING);\n        \n        uint bet = games[gameId].bet;\n        address playerX = games[gameId].playerX;\n        address playerY = games[gameId].playerY;\n\n        if (games[gameId].status == Status.BET) {\n            games[gameId].status = Status.DONE;\n            payout(playerX, bet);\n        } else {\n            if (playerX == msg.sender) {\n                // If player X quits, pay player O.\n                gameOverWinnerCase(gameId, playerY);\n                emit GameUpdateEvent(gameId, games[gameId].board, games[gameId].whoseTurn, playerY);\n            } else {\n                gameOverWinnerCase(gameId, playerX);\n                emit GameUpdateEvent(gameId, games[gameId].board, games[gameId].whoseTurn, playerX);\n            }\n        }\n    }\n\n    function payout(address winner, uint amount) internal {\n        winner.transfer(amount);\n    }\n\n    function playerMove(uint gameId, uint index) public gameExists(gameId) gameIsOngoing(gameId) isParticipating(gameId) checkInput(gameId, index) {\n        games[gameId].board[index] = msg.sender;\n        \n        address winner = checkWinner(gameId);\n        if (winner != address(0)) {\n            gameOverWinnerCase(gameId, winner);\n        } else if (checkDraw(gameId)) {\n            gameOverDrawCase(gameId);\n        } else {\n            if (msg.sender == games[gameId].playerX) {\n                games[gameId].whoseTurn = games[gameId].playerY;\n            } else {\n                games[gameId].whoseTurn = games[gameId].playerX;\n            }\n        }\n        emit GameUpdateEvent(gameId, games[gameId].board, games[gameId].whoseTurn, winner);\n    }\n\n    function gameOverWinnerCase(uint gameId, address winner) internal {\n        games[gameId].status = Status.DONE;\n        games[gameId].winner = winner;\n        uint winnings = games[gameId].bet * 2;\n        if (games[gameId].fee > 0) {\n            uint commission = winnings / 100 * games[gameId].fee;\n            winnings = winnings - commission;\n            balance = balance + commission;\n        }\n        payout(winner, winnings);\n        emit GameWon(gameId, winner, winnings);\n    }\n\n    function gameOverDrawCase(uint gameId) internal {\n        games[gameId].status = Status.DONE;\n        uint winnings = games[gameId].bet;\n        if (games[gameId].fee > 0) {\n            uint commission = winnings / 100 * games[gameId].fee;\n            winnings = winnings - commission;\n            balance = balance + (2 * commission);\n        }\n        payout(games[gameId].playerX, winnings);\n        payout(games[gameId].playerY, winnings);\n        emit GameDraw(gameId);\n    }\n\n    function checkWinner(uint gameId) internal view returns(address winner) {\n        address[] memory board = games[gameId].board;\n\n        winner = checkPattern(board, 0, 1, 2);\n        if (winner != address(0)) return winner;\n        winner = checkPattern(board, 3, 4, 5);\n        if (winner != address(0)) return winner;\n        winner = checkPattern(board, 6, 7, 8);\n        if (winner != address(0)) return winner;\n        winner = checkPattern(board, 0, 3, 6);\n        if (winner != address(0)) return winner;\n        winner = checkPattern(board, 1, 4, 7);\n        if (winner != address(0)) return winner;\n        winner = checkPattern(board, 2, 5, 8);\n        if (winner != address(0)) return winner;\n        winner = checkPattern(board, 0, 4, 8);\n        if (winner != address(0)) return winner;\n        winner = checkPattern(board, 2, 4, 6);\n        if (winner != address(0)) return winner;\n        \n        return address(0);\n    }\n\n    function checkPattern(address[] board, uint8 x, uint8 y, uint8 z) internal pure returns(address winner) {\n        if (board[x] != address(0) && board[x] == board[y] && board[x] == board[z]) {\n            return board[x];\n        }\n        return address(0);\n    }\n\n    function checkDraw(uint gameId) internal view returns(bool draw) {\n        address[] memory board = games[gameId].board;\n        draw = true;\n        for(uint8 i = 0; i < board.length; ++i) {\n            draw = draw && board[i] != address(0);\n        }\n        return draw;\n    }\n\n    // Is the sender of the message participating in the game.\n    modifier isParticipating(uint gameId) {\n        Game memory game = games[gameId];\n        require(msg.sender == game.playerX || msg.sender == game.playerY);\n        _;\n    }\n\n    modifier mayJoinGame(uint gameId) {\n        // Game exists.\n        require(gameId < games.length);\n        \n        // Game is in betting phase.\n        Game memory gameToJoin = games[gameId];\n        require(gameToJoin.status == Status.BET);\n        \n        // Game has empty seats.\n        require(gameToJoin.playerY == address(0));\n\n        // Check that the opponent is not the same as the creator of the game.\n        address playerX = gameToJoin.playerX;\n        require(playerX != msg.sender);\n\n        // Check if the bet is sufficient in order to join the game.\n        uint bet = gameToJoin.bet;\n        require(msg.value >= bet);\n        //if (msg.value > bet) {\n            //msg.sender.transfer(msg.value - bet);\n        //}\n        _;\n    }\n\n    modifier gameExists(uint gameId) {\n        // Game exists.\n        require(gameId < games.length);\n        _;\n    }\n\n    modifier gameIsOngoing(uint gameId) {\n        require(games[gameId].status == Status.ONGOING);\n        _;\n    }\n\n    modifier checkInput(uint gameId, uint index) {\n        // Valid index.\n        require(index < 9);\n        \n        // Cell is empty.\n        require(games[gameId].board[index] == address(0));\n\n        // Own turn.\n        require(games[gameId].whoseTurn == msg.sender);\n        _;\n    }\n\n    function enableCommissions() public onlyOwner {\n        commissionEnabled = true;\n    }\n\n    function disableCommissions() public onlyOwner {\n        commissionEnabled = false;\n    }\n\n    function setFee(uint newPercentage) public onlyOwner {\n        require(newPercentage <= MAX_FEE);\n        fee = newPercentage;\n    }\n\n    function withdraw() public onlyOwner {\n        require(balance != 0);\n        require(address(this).balance >= balance);\n        uint amountToSend = balance;\n        balance = 0;\n        msg.sender.transfer(amountToSend);\n    }\n}",
  "sourcePath": "/Users/alexanderhofmann/Desktop/D-TicTacToe/contracts/TicTacToe.sol",
  "compiler": {
    "name": "solc",
    "version": "0.4.23+commit.124ca40d.Emscripten.clang"
  },
  "schemaVersion": "2.0.0",
  "updatedAt": "2018-05-16T13:46:09.092Z"
}